{
  "contractName": "Contracts_Factory",
  "abi": [
    {
      "constant": true,
      "inputs": [],
      "name": "getEthAccount",
      "outputs": [
        {
          "name": "",
          "type": "string[]"
        }
      ],
      "payable": false,
      "stateMutability": "view",
      "type": "function",
      "signature": "0x16540941"
    },
    {
      "constant": true,
      "inputs": [],
      "name": "getIndex",
      "outputs": [
        {
          "name": "",
          "type": "uint256"
        }
      ],
      "payable": false,
      "stateMutability": "view",
      "type": "function",
      "signature": "0x81045ead"
    },
    {
      "constant": false,
      "inputs": [],
      "name": "incrementIndex",
      "outputs": [],
      "payable": false,
      "stateMutability": "nonpayable",
      "type": "function",
      "signature": "0xc17cf9a8"
    },
    {
      "constant": false,
      "inputs": [],
      "name": "createManufacturer",
      "outputs": [],
      "payable": false,
      "stateMutability": "nonpayable",
      "type": "function",
      "signature": "0x82a9bcd2"
    },
    {
      "constant": true,
      "inputs": [],
      "name": "allManufacturers",
      "outputs": [
        {
          "name": "",
          "type": "address[]"
        }
      ],
      "payable": false,
      "stateMutability": "view",
      "type": "function",
      "signature": "0x07857292"
    },
    {
      "constant": true,
      "inputs": [],
      "name": "get_manufacturer_SIZE",
      "outputs": [
        {
          "name": "",
          "type": "int256"
        }
      ],
      "payable": false,
      "stateMutability": "view",
      "type": "function",
      "signature": "0xc9c865f4"
    },
    {
      "constant": false,
      "inputs": [],
      "name": "createDistributor",
      "outputs": [],
      "payable": false,
      "stateMutability": "nonpayable",
      "type": "function",
      "signature": "0x5b858766"
    },
    {
      "constant": true,
      "inputs": [],
      "name": "allDistributors",
      "outputs": [
        {
          "name": "",
          "type": "address[]"
        }
      ],
      "payable": false,
      "stateMutability": "view",
      "type": "function",
      "signature": "0xee31eacd"
    },
    {
      "constant": true,
      "inputs": [],
      "name": "get_distributor_SIZE",
      "outputs": [
        {
          "name": "",
          "type": "int256"
        }
      ],
      "payable": false,
      "stateMutability": "view",
      "type": "function",
      "signature": "0x62b459f4"
    },
    {
      "constant": false,
      "inputs": [],
      "name": "createRetailer",
      "outputs": [],
      "payable": false,
      "stateMutability": "nonpayable",
      "type": "function",
      "signature": "0xb522ee4f"
    },
    {
      "constant": true,
      "inputs": [],
      "name": "allRetailers",
      "outputs": [
        {
          "name": "",
          "type": "address[]"
        }
      ],
      "payable": false,
      "stateMutability": "view",
      "type": "function",
      "signature": "0x0f692a1a"
    },
    {
      "constant": true,
      "inputs": [],
      "name": "get_retailer_SIZE",
      "outputs": [
        {
          "name": "",
          "type": "int256"
        }
      ],
      "payable": false,
      "stateMutability": "view",
      "type": "function",
      "signature": "0xed216de4"
    },
    {
      "constant": false,
      "inputs": [],
      "name": "createCustomer",
      "outputs": [],
      "payable": false,
      "stateMutability": "nonpayable",
      "type": "function",
      "signature": "0x62254dc3"
    },
    {
      "constant": true,
      "inputs": [],
      "name": "allCustomers",
      "outputs": [
        {
          "name": "",
          "type": "address[]"
        }
      ],
      "payable": false,
      "stateMutability": "view",
      "type": "function",
      "signature": "0x1e3e6952"
    },
    {
      "constant": true,
      "inputs": [],
      "name": "get_customer_SIZE",
      "outputs": [
        {
          "name": "",
          "type": "int256"
        }
      ],
      "payable": false,
      "stateMutability": "view",
      "type": "function",
      "signature": "0xafd12fbc"
    }
  ],
  "bytecode": "0x6080604052600a600055600060015561014060405190810160405280606060405190810160405280602a81526020017f307835333565633236373432666544394665394264393844383531463630423181526020017f37653632316361363865000000000000000000000000000000000000000000008152508152602001606060405190810160405280602a81526020017f307837313231396637363333393438443732423645443563353041626465663481526020017f37373134333130614462000000000000000000000000000000000000000000008152508152602001606060405190810160405280602a81526020017f307830303841453163613637463639433734334438466634653035314436623581526020017f65376143374545393042000000000000000000000000000000000000000000008152508152602001606060405190810160405280602a81526020017f307863363834383346313461396536303866366334663238623133353436323181526020017f64363733453533326233000000000000000000000000000000000000000000008152508152602001606060405190810160405280602a81526020017f307864323337353242344362353637443931346561393943663745393133386581526020017f31613636353266344141000000000000000000000000000000000000000000008152508152602001606060405190810160405280602a81526020017f307846414338396430383034373663363738353365324432306344663437424481526020017f39433336313737363136000000000000000000000000000000000000000000008152508152602001606060405190810160405280602a81526020017f307843303835343436313332343334613135383437393330313546334263433581526020017f36393336306636444466000000000000000000000000000000000000000000008152508152602001606060405190810160405280602a81526020017f307863304230334232364537346137423630343863453436373730373345324181526020017f61334536344644333735000000000000000000000000000000000000000000008152508152602001606060405190810160405280602a81526020017f307831343942413335316530466234333638453333303838343134333342623381526020017f31436641303731373538000000000000000000000000000000000000000000008152508152602001606060405190810160405280602a81526020017f307832636664344643344165384241363961384533434133653531343234364681526020017f3242326636396439373700000000000000000000000000000000000000000000815250815250600290600a620003ff92919062000428565b5060006003556000600555600060075560006009553480156200042157600080fd5b50620005bb565b8280548282559060005260206000209081019282156200047c579160200282015b828111156200047b5782518290805190602001906200046a9291906200048f565b509160200191906001019062000449565b5b5090506200048b919062000516565b5090565b828054600181600116156101000203166002900490600052602060002090601f016020900481019282601f10620004d257805160ff191683800117855562000503565b8280016001018555821562000503579182015b8281111562000502578251825591602001919060010190620004e5565b5b50905062000512919062000547565b5090565b6200054491905b808211156200054057600081816200053691906200056f565b506001016200051d565b5090565b90565b6200056c91905b80821115620005685760008160009055506001016200054e565b5090565b90565b50805460018160011615610100020316600290046000825580601f10620005975750620005b8565b601f016020900490600052602060002090810190620005b7919062000547565b5b50565b611d1380620005cb6000396000f3fe6080604052600436106100db576000357c0100000000000000000000000000000000000000000000000000000000900463ffffffff16806307857292146100e05780630f692a1a1461010b57806316540941146101365780631e3e6952146101615780635b8587661461018c57806362254dc3146101a357806362b459f4146101ba57806381045ead146101e557806382a9bcd214610210578063afd12fbc14610227578063b522ee4f14610252578063c17cf9a814610269578063c9c865f414610280578063ed216de4146102ab578063ee31eacd146102d6575b600080fd5b3480156100ec57600080fd5b506100f5610301565b6040516101029190610be4565b60405180910390f35b34801561011757600080fd5b5061012061038f565b60405161012d9190610c06565b60405180910390f35b34801561014257600080fd5b5061014b61041d565b6040516101589190610c28565b60405180910390f35b34801561016d57600080fd5b50610176610506565b6040516101839190610ba0565b60405180910390f35b34801561019857600080fd5b506101a1610594565b005b3480156101af57600080fd5b506101b8610638565b005b3480156101c657600080fd5b506101cf6106dc565b6040516101dc9190610c4a565b60405180910390f35b3480156101f157600080fd5b506101fa6106e6565b6040516102079190610c65565b60405180910390f35b34801561021c57600080fd5b506102256106f0565b005b34801561023357600080fd5b5061023c610794565b6040516102499190610c4a565b60405180910390f35b34801561025e57600080fd5b5061026761079e565b005b34801561027557600080fd5b5061027e610842565b005b34801561028c57600080fd5b50610295610856565b6040516102a29190610c4a565b60405180910390f35b3480156102b757600080fd5b506102c0610860565b6040516102cd9190610c4a565b60405180910390f35b3480156102e257600080fd5b506102eb61086a565b6040516102f89190610bc2565b60405180910390f35b6060600480548060200260200160405190810160405280929190818152602001828054801561038557602002820191906000526020600020905b8160009054906101000a900473ffffffffffffffffffffffffffffffffffffffff1673ffffffffffffffffffffffffffffffffffffffff168152602001906001019080831161033b575b5050505050905090565b6060600880548060200260200160405190810160405280929190818152602001828054801561041357602002820191906000526020600020905b8160009054906101000a900473ffffffffffffffffffffffffffffffffffffffff1673ffffffffffffffffffffffffffffffffffffffff16815260200190600101908083116103c9575b5050505050905090565b60606002805480602002602001604051908101604052809291908181526020016000905b828210156104fd578382906000526020600020018054600181600116156101000203166002900480601f0160208091040260200160405190810160405280929190818152602001828054600181600116156101000203166002900480156104e95780601f106104be576101008083540402835291602001916104e9565b820191906000526020600020905b8154815290600101906020018083116104cc57829003601f168201915b505050505081526020019060010190610441565b50505050905090565b6060600a80548060200260200160405190810160405280929190818152602001828054801561058a57602002820191906000526020600020905b8160009054906101000a900473ffffffffffffffffffffffffffffffffffffffff1673ffffffffffffffffffffffffffffffffffffffff1681526020019060010190808311610540575b5050505050905090565b600061059e6108f8565b604051809103906000f0801580156105ba573d6000803e3d6000fd5b50905060068190806001815401808255809150509060018203906000526020600020016000909192909190916101000a81548173ffffffffffffffffffffffffffffffffffffffff021916908373ffffffffffffffffffffffffffffffffffffffff1602179055505060056000815480929190600101919050555050565b6000610642610907565b604051809103906000f08015801561065e573d6000803e3d6000fd5b509050600a8190806001815401808255809150509060018203906000526020600020016000909192909190916101000a81548173ffffffffffffffffffffffffffffffffffffffff021916908373ffffffffffffffffffffffffffffffffffffffff1602179055505060096000815480929190600101919050555050565b6000600554905090565b6000600154905090565b60006106fa610916565b604051809103906000f080158015610716573d6000803e3d6000fd5b50905060048190806001815401808255809150509060018203906000526020600020016000909192909190916101000a81548173ffffffffffffffffffffffffffffffffffffffff021916908373ffffffffffffffffffffffffffffffffffffffff1602179055505060036000815480929190600101919050555050565b6000600954905090565b60006107a8610926565b604051809103906000f0801580156107c4573d6000803e3d6000fd5b50905060088190806001815401808255809150509060018203906000526020600020016000909192909190916101000a81548173ffffffffffffffffffffffffffffffffffffffff021916908373ffffffffffffffffffffffffffffffffffffffff1602179055505060076000815480929190600101919050555050565b600160008154809291906001019190505550565b6000600354905090565b6000600754905090565b606060068054806020026020016040519081016040528092919081815260200182805480156108ee57602002820191906000526020600020905b8160009054906101000a900473ffffffffffffffffffffffffffffffffffffffff1673ffffffffffffffffffffffffffffffffffffffff16815260200190600101908083116108a4575b5050505050905090565b60405160db80610e4d83390190565b60405160db80610f2883390190565b6040516104f98061100383390190565b6040516107de806114fc83390190565b600061094182610cc1565b80845260208401935061095383610c80565b60005b8281101561098557610969868351610b10565b61097282610d03565b9150602086019550600181019050610956565b50849250505092915050565b600061099c82610ccc565b8084526020840193506109ae83610c8d565b60005b828110156109e0576109c4868351610b1f565b6109cd82610d10565b91506020860195506001810190506109b1565b50849250505092915050565b60006109f782610cd7565b808452602084019350610a0983610c9a565b60005b82811015610a3b57610a1f868351610b2e565b610a2882610d1d565b9150602086019550600181019050610a0c565b50849250505092915050565b6000610a5282610ce2565b808452602084019350610a6483610ca7565b60005b82811015610a9657610a7a868351610b3d565b610a8382610d2a565b9150602086019550600181019050610a67565b50849250505092915050565b6000610aad82610ced565b80845260208401935083602082028501610ac685610cb4565b60005b84811015610aff578383038852610ae1838351610b5b565b9250610aec82610d37565b9150602088019750600181019050610ac9565b508196508694505050505092915050565b610b1981610d78565b82525050565b610b2881610d9c565b82525050565b610b3781610dc0565b82525050565b610b4681610de4565b82525050565b610b5581610d44565b82525050565b6000610b6682610cf8565b808452610b7a816020860160208601610e08565b610b8381610e3b565b602085010191505092915050565b610b9a81610d6e565b82525050565b60006020820190508181036000830152610bba8184610936565b905092915050565b60006020820190508181036000830152610bdc8184610991565b905092915050565b60006020820190508181036000830152610bfe81846109ec565b905092915050565b60006020820190508181036000830152610c208184610a47565b905092915050565b60006020820190508181036000830152610c428184610aa2565b905092915050565b6000602082019050610c5f6000830184610b4c565b92915050565b6000602082019050610c7a6000830184610b91565b92915050565b6000602082019050919050565b6000602082019050919050565b6000602082019050919050565b6000602082019050919050565b6000602082019050919050565b600081519050919050565b600081519050919050565b600081519050919050565b600081519050919050565b600081519050919050565b600081519050919050565b6000602082019050919050565b6000602082019050919050565b6000602082019050919050565b6000602082019050919050565b6000602082019050919050565b6000819050919050565b600073ffffffffffffffffffffffffffffffffffffffff82169050919050565b6000819050919050565b6000610d8382610d8a565b9050919050565b6000610d9582610d4e565b9050919050565b6000610da782610dae565b9050919050565b6000610db982610d4e565b9050919050565b6000610dcb82610dd2565b9050919050565b6000610ddd82610d4e565b9050919050565b6000610def82610df6565b9050919050565b6000610e0182610d4e565b9050919050565b60005b83811015610e26578082015181840152602081019050610e0b565b83811115610e35576000848401525b50505050565b6000601f19601f830116905091905056fe608060405260c9806100126000396000f3fe608060405260043610603f576000357c0100000000000000000000000000000000000000000000000000000000900463ffffffff16806338cc4831146041575b005b348015604c57600080fd5b5060536095565b604051808273ffffffffffffffffffffffffffffffffffffffff1673ffffffffffffffffffffffffffffffffffffffff16815260200191505060405180910390f35b60003090509056fea165627a7a72305820149bc55d55c19403df4fc68194301ce7bc6800a77304694e3f564012753a61440029608060405260c9806100126000396000f3fe608060405260043610603f576000357c0100000000000000000000000000000000000000000000000000000000900463ffffffff16806338cc4831146041575b005b348015604c57600080fd5b5060536095565b604051808273ffffffffffffffffffffffffffffffffffffffff1673ffffffffffffffffffffffffffffffffffffffff16815260200191505060405180910390f35b60003090509056fea165627a7a72305820a487d0a7e19282d2c3cd13573fcda4bdfdf358ae549f6f2efcc4c90755f0c9760029608060405260006001556104e1806100186000396000f3fe608060405260043610610062576000357c0100000000000000000000000000000000000000000000000000000000900463ffffffff16806338cc483114610064578063a3a017e11461008f578063aeb8ce9b146100b8578063bf043c9f146100f5575b005b34801561007057600080fd5b5061007961011e565b60405161008691906103c3565b60405180910390f35b34801561009b57600080fd5b506100b660048036036100b19190810190610351565b610126565b005b3480156100c457600080fd5b506100df60048036036100da9190810190610310565b6101a3565b6040516100ec91906103de565b60405180910390f35b34801561010157600080fd5b5061011c60048036036101179190810190610351565b610217565b005b600030905090565b806000836040518082805190602001908083835b60208310151561015f578051825260208201915060208101905060208303925061013a565b6001836020036101000a0380198251168184511680821785525050505050509050019150509081526020016040518091039020600082825403925050819055505050565b600080826040518082805190602001908083835b6020831015156101dc57805182526020820191506020810190506020830392506101b7565b6001836020036101000a0380198251168184511680821785525050505050509050019150509081526020016040518091039020549050919050565b806000836040518082805190602001908083835b602083101515610250578051825260208201915060208101905060208303925061022b565b6001836020036101000a0380198251168184511680821785525050505050509050019150509081526020016040518091039020600082825401925050819055506001600081548092919060010191905055505050565b60006102b2823561048e565b905092915050565b600082601f83011215156102cd57600080fd5b81356102e06102db82610426565b6103f9565b915080825260208301602083018583830111156102fc57600080fd5b610307838284610498565b50505092915050565b60006020828403121561032257600080fd5b600082013567ffffffffffffffff81111561033c57600080fd5b610348848285016102ba565b91505092915050565b6000806040838503121561036457600080fd5b600083013567ffffffffffffffff81111561037e57600080fd5b61038a858286016102ba565b925050602061039b858286016102a6565b9150509250929050565b6103ae81610452565b82525050565b6103bd81610464565b82525050565b60006020820190506103d860008301846103a5565b92915050565b60006020820190506103f360008301846103b4565b92915050565b6000604051905081810181811067ffffffffffffffff8211171561041c57600080fd5b8060405250919050565b600067ffffffffffffffff82111561043d57600080fd5b601f19601f8301169050602081019050919050565b600061045d8261046e565b9050919050565b6000819050919050565b600073ffffffffffffffffffffffffffffffffffffffff82169050919050565b6000819050919050565b8281833760008383015250505056fea265627a7a72305820a3fc4f47da01903716b0633977196046665d826dae1bc01ba6a7a7b2ad9f97ac6c6578706572696d656e74616cf5003760806040526107cb806100136000396000f3fe608060405260043610610057576000357c0100000000000000000000000000000000000000000000000000000000900463ffffffff16806338cc48311461005957806368111cce14610084578063d5cf6f9e146100c1575b005b34801561006557600080fd5b5061006e6100ea565b60405161007b9190610632565b60405180910390f35b34801561009057600080fd5b506100ab60048036036100a69190810190610473565b6100f2565b6040516100b8919061064d565b60405180910390f35b3480156100cd57600080fd5b506100e860048036036100e391908101906104b4565b610268565b005b600030905090565b60606000826040518082805190602001908083835b60208310151561012c5780518252602082019150602081019050602083039250610107565b6001836020036101000a0380198251168184511680821785525050505050509050019150509081526020016040518091039020805480602002602001604051908101604052809291908181526020016000905b8282101561025d5783829060005260206000209060020201604080519081016040529081600082018054600181600116156101000203166002900480601f01602080910402602001604051908101604052809291908181526020018280546001816001161561010002031660029004801561023b5780601f106102105761010080835404028352916020019161023b565b820191906000526020600020905b81548152906001019060200180831161021e57829003601f168201915b505050505081526020016001820154815250508152602001906001019061017f565b505050509050919050565b61027061034a565b828160000181905250818160200181815250506000846040518082805190602001908083835b6020831015156102bb5780518252602082019150602081019050602083039250610296565b6001836020036101000a038019825116818451168082178552505050505050905001915050908152602001604051809103902081908060018154018082558091505090600182039060005260206000209060020201600090919290919091506000820151816000019080519060200190610336929190610364565b506020820151816001015550505050505050565b604080519081016040528060608152602001600081525090565b828054600181600116156101000203166002900490600052602060002090601f016020900481019282601f106103a557805160ff19168380011785556103d3565b828001600101855582156103d3579182015b828111156103d25782518255916020019190600101906103b7565b5b5090506103e091906103e4565b5090565b61040691905b808211156104025760008160009055506001016103ea565b5090565b90565b60006104158235610734565b905092915050565b600082601f830112151561043057600080fd5b813561044361043e8261069c565b61066f565b9150808252602083016020830185838301111561045f57600080fd5b61046a83828461073e565b50505092915050565b60006020828403121561048557600080fd5b600082013567ffffffffffffffff81111561049f57600080fd5b6104ab8482850161041d565b91505092915050565b6000806000606084860312156104c957600080fd5b600084013567ffffffffffffffff8111156104e357600080fd5b6104ef8682870161041d565b935050602084013567ffffffffffffffff81111561050c57600080fd5b6105188682870161041d565b925050604061052986828701610409565b9150509250925092565b61053c816106f8565b82525050565b600061054d826106d5565b80845260208401935083602082028501610566856106c8565b60005b8481101561059f5783830388526105818383516105f5565b925061058c826106eb565b9150602088019750600181019050610569565b508196508694505050505092915050565b6105b98161070a565b82525050565b60006105ca826106e0565b8084526105de81602086016020860161074d565b6105e781610780565b602085010191505092915050565b6000604083016000830151848203600086015261061282826105bf565b915050602083015161062760208601826105b0565b508091505092915050565b60006020820190506106476000830184610533565b92915050565b600060208201905081810360008301526106678184610542565b905092915050565b6000604051905081810181811067ffffffffffffffff8211171561069257600080fd5b8060405250919050565b600067ffffffffffffffff8211156106b357600080fd5b601f19601f8301169050602081019050919050565b6000602082019050919050565b600081519050919050565b600081519050919050565b6000602082019050919050565b600061070382610714565b9050919050565b6000819050919050565b600073ffffffffffffffffffffffffffffffffffffffff82169050919050565b6000819050919050565b82818337600083830152505050565b60005b8381101561076b578082015181840152602081019050610750565b8381111561077a576000848401525b50505050565b6000601f19601f830116905091905056fea265627a7a72305820ac1988e2c04a39140248a49c0ae7e747ffbd037ab8cb4d1f9bc07232430f87e76c6578706572696d656e74616cf50037a265627a7a72305820df547bcda325f817ce7c5b2f505bbc3bcc2834f12f4a8b8f201f17a1cce62d556c6578706572696d656e74616cf50037",
  "source": "// SPDX-License-Identifier: MIT\r\npragma solidity 0.5.0;\r\npragma experimental ABIEncoderV2;\r\n\r\nimport \"./Manufacturer.sol\";\r\nimport \"./Distributor.sol\";\r\nimport \"./Retailer.sol\";\r\nimport \"./Customer.sol\";\r\n\r\ncontract Contracts_Factory {\r\n\r\n    // Common Section\r\n    uint256 SIZE = 10;\r\n    uint index = 0;\r\n    string[] accounts = [\r\n        \"0x535ec26742feD9Fe9Bd98D851F60B17e621ca68e\",\r\n        \"0x71219f7633948D72B6ED5c50Abdef47714310aDb\",\r\n        \"0x008AE1ca67F69C743D8Ff4e051D6b5e7aC7EE90B\",\r\n        \"0xc68483F14a9e608f6c4f28b1354621d673E532b3\",\r\n        \"0xd23752B4Cb567D914ea99Cf7E9138e1a6652f4AA\",\r\n        \"0xFAC89d080476c67853e2D20cDf47BD9C36177616\",\r\n        \"0xC085446132434a1584793015F3BcC569360f6DDf\",\r\n        \"0xc0B03B26E74a7B6048cE4677073E2Aa3E64FD375\",\r\n        \"0x149BA351e0Fb4368E3308841433Bb31CfA071758\",\r\n        \"0x2cfd4FC4Ae8BA69a8E3CA3e514246F2B2f69d977\"\r\n    ];\r\n\r\n    function getEthAccount() public view returns (string[] memory) {\r\n        return accounts;\r\n    }\r\n    function getIndex() public view returns(uint){\r\n        return index;\r\n    }\r\n    function incrementIndex() public {\r\n       index++;\r\n    }\r\n\r\n    // Manufacturer Section\r\n    int256 _manufacturer_SIZE = 0;\r\n    Manufacturer[] _manufacturers;\r\n\r\n    function createManufacturer() public {\r\n        Manufacturer newManufacturer = new Manufacturer();\r\n        _manufacturers.push(newManufacturer);\r\n        _manufacturer_SIZE++;\r\n    }\r\n\r\n    function allManufacturers() public view returns (Manufacturer[] memory) {\r\n        return _manufacturers;\r\n    }\r\n\r\n    function get_manufacturer_SIZE() public view returns (int256) {\r\n        return _manufacturer_SIZE;\r\n    }\r\n\r\n\r\n    // Distributor Section\r\n    int256 _distributor_SIZE = 0;\r\n    Distributor[] _distributors;\r\n\r\n    function createDistributor() public {\r\n        Distributor newdistributor = new Distributor();\r\n        _distributors.push(newdistributor);\r\n        _distributor_SIZE++;\r\n    }\r\n\r\n    function allDistributors() public view returns (Distributor[] memory) {\r\n        return _distributors;\r\n    }\r\n\r\n    function get_distributor_SIZE() public view returns (int256) {\r\n        return _distributor_SIZE;\r\n    }\r\n\r\n\r\n    // Retailer Section\r\n    int256 _retailer_SIZE = 0;\r\n    Retailer[] _retailers;\r\n\r\n    function createRetailer() public {\r\n        Retailer newRetailer = new Retailer();\r\n        _retailers.push(newRetailer);\r\n        _retailer_SIZE++;\r\n    }\r\n\r\n    function allRetailers() public view returns (Retailer[] memory) {\r\n        return _retailers;\r\n    }\r\n\r\n    function get_retailer_SIZE() public view returns (int256) {\r\n        return _retailer_SIZE;\r\n    }\r\n\r\n    // Customer Section\r\n    int256 _customer_SIZE = 0;\r\n    Customer[] _customers;\r\n\r\n    function createCustomer() public {\r\n        Customer newManufacturer = new Customer();\r\n        _customers.push(newManufacturer);\r\n        _customer_SIZE++;\r\n    }\r\n\r\n    function allCustomers() public view returns (Customer[] memory) {\r\n        return _customers;\r\n    }\r\n\r\n    function get_customer_SIZE() public view returns (int256) {\r\n        return _customer_SIZE;\r\n    }\r\n}\r\n",
  "sourcePath": "D:/Mini-Project-Sem-4/Supply-Chain-and-Logistics-Blockchain/backend/blockchain/contracts/Contracts_Factory.sol",
  "compiler": {
    "name": "solc",
    "version": "0.5.0+commit.1d4f565a.Emscripten.clang"
  },
  "schemaVersion": "3.0.1",
  "updatedAt": "2022-04-04T11:41:56.625Z",
  "devdoc": {
    "methods": {}
  },
  "userdoc": {
    "methods": {}
  }
}