{
  "contractName": "Manufacturer",
  "abi": [
    {
      "constant": true,
      "inputs": [],
      "name": "material",
      "outputs": [
        {
          "name": "",
          "type": "int256"
        }
      ],
      "payable": false,
      "stateMutability": "view",
      "type": "function",
      "signature": "0xb95a4f83"
    },
    {
      "constant": true,
      "inputs": [
        {
          "name": "",
          "type": "uint256"
        }
      ],
      "name": "logs",
      "outputs": [
        {
          "name": "transaction_detail",
          "type": "string"
        },
        {
          "name": "prev_stock",
          "type": "int256"
        },
        {
          "name": "new_stock",
          "type": "int256"
        },
        {
          "name": "timestamp",
          "type": "uint256"
        }
      ],
      "payable": false,
      "stateMutability": "view",
      "type": "function",
      "signature": "0xe79899bd"
    },
    {
      "inputs": [],
      "payable": true,
      "stateMutability": "payable",
      "type": "constructor",
      "signature": "constructor"
    },
    {
      "payable": true,
      "stateMutability": "payable",
      "type": "fallback"
    },
    {
      "constant": true,
      "inputs": [],
      "name": "getAddress",
      "outputs": [
        {
          "name": "",
          "type": "address"
        }
      ],
      "payable": false,
      "stateMutability": "view",
      "type": "function",
      "signature": "0x38cc4831"
    },
    {
      "constant": false,
      "inputs": [
        {
          "name": "etherreceiver",
          "type": "address"
        },
        {
          "name": "amount",
          "type": "uint256"
        }
      ],
      "name": "fundtransfer",
      "outputs": [],
      "payable": true,
      "stateMutability": "payable",
      "type": "function",
      "signature": "0x494e4bc3"
    },
    {
      "constant": false,
      "inputs": [],
      "name": "produce",
      "outputs": [
        {
          "name": "",
          "type": "int256"
        }
      ],
      "payable": false,
      "stateMutability": "nonpayable",
      "type": "function",
      "signature": "0x656b9952"
    },
    {
      "constant": false,
      "inputs": [
        {
          "name": "_material",
          "type": "int256"
        }
      ],
      "name": "sell",
      "outputs": [
        {
          "name": "",
          "type": "string"
        }
      ],
      "payable": false,
      "stateMutability": "nonpayable",
      "type": "function",
      "signature": "0x18061cea"
    },
    {
      "constant": true,
      "inputs": [],
      "name": "available",
      "outputs": [
        {
          "name": "",
          "type": "int256"
        }
      ],
      "payable": false,
      "stateMutability": "view",
      "type": "function",
      "signature": "0x48a0d754"
    },
    {
      "constant": false,
      "inputs": [
        {
          "name": "_transaction_detail",
          "type": "string"
        },
        {
          "name": "_prev_stock",
          "type": "int256"
        },
        {
          "name": "_new_stock",
          "type": "int256"
        },
        {
          "name": "_timestamp",
          "type": "uint256"
        }
      ],
      "name": "_transaction_entry",
      "outputs": [],
      "payable": false,
      "stateMutability": "nonpayable",
      "type": "function",
      "signature": "0x403f9777"
    },
    {
      "constant": true,
      "inputs": [],
      "name": "_transaction_logs",
      "outputs": [
        {
          "components": [
            {
              "name": "transaction_detail",
              "type": "string"
            },
            {
              "name": "prev_stock",
              "type": "int256"
            },
            {
              "name": "new_stock",
              "type": "int256"
            },
            {
              "name": "timestamp",
              "type": "uint256"
            }
          ],
          "name": "",
          "type": "tuple[]"
        }
      ],
      "payable": false,
      "stateMutability": "view",
      "type": "function",
      "signature": "0xd758227b"
    }
  ],
  "bytecode": "0x608060405260008055610cde806100176000396000f3fe608060405260043610610099576000357c0100000000000000000000000000000000000000000000000000000000900463ffffffff16806318061cea1461009b57806338cc4831146100d8578063403f97771461010357806348a0d7541461012c578063494e4bc314610157578063656b995214610173578063b95a4f831461019e578063d758227b146101c9578063e79899bd146101f4575b005b3480156100a757600080fd5b506100c260048036036100bd9190810190610854565b610234565b6040516100cf9190610ae3565b60405180910390f35b3480156100e457600080fd5b506100ed6103a7565b6040516100fa9190610a8b565b60405180910390f35b34801561010f57600080fd5b5061012a6004803603610125919081019061087d565b6103af565b005b34801561013857600080fd5b50610141610451565b60405161014e9190610ac8565b60405180910390f35b610171600480360361016c9190810190610818565b61045a565b005b34801561017f57600080fd5b506101886104a5565b6040516101959190610ac8565b60405180910390f35b3480156101aa57600080fd5b506101b36104bb565b6040516101c09190610ac8565b60405180910390f35b3480156101d557600080fd5b506101de6104c1565b6040516101eb9190610aa6565b60405180910390f35b34801561020057600080fd5b5061021b600480360361021691908101906108f8565b6105e1565b60405161022b9493929190610b05565b60405180910390f35b6060816000541215156102f7576102886040805190810160405280600b81526020017f53746f636b207370656e740000000000000000000000000000000000000000008152506000548460005403426103af565b8160005403600081905550606060405190810160405280602681526020017f5375636365737366756c6c792073656c6c202f20726571756972656d656e742081526020017f66696c6c6564000000000000000000000000000000000000000000000000000081525090506103a2565b61033b6040805190810160405280600b81526020017f53746f636b207370656e740000000000000000000000000000000000000000008152506000546000426103af565b60008081905550606060405190810160405280602e81526020017f5375636365737366756c6c792073656c6c2072656d61696e696e672f20756e6481526020017f657220726571756972656d656e7400000000000000000000000000000000000081525090505b919050565b600030905090565b6103b76106b8565b8481600001819052508381602001818152505082816040018181525050818160600181815250506001819080600181540180825580915050906001820390600052602060002090600402016000909192909190915060008201518160000190805190602001906104289291906106e1565b506020820151816001015560408201518160020155606082015181600301555050505050505050565b60008054905090565b8173ffffffffffffffffffffffffffffffffffffffff166108fc829081150290604051600060405180830381858888f193505050501580156104a0573d6000803e3d6000fd5b505050565b6000600a60005401600081905550600054905090565b60005481565b60606001805480602002602001604051908101604052809291908181526020016000905b828210156105d8578382906000526020600020906004020160806040519081016040529081600082018054600181600116156101000203166002900480601f0160208091040260200160405190810160405280929190818152602001828054600181600116156101000203166002900480156105a25780601f10610577576101008083540402835291602001916105a2565b820191906000526020600020905b81548152906001019060200180831161058557829003601f168201915b505050505081526020016001820154815260200160028201548152602001600382015481525050815260200190600101906104e5565b50505050905090565b6001818154811015156105f057fe5b9060005260206000209060040201600091509050806000018054600181600116156101000203166002900480601f01602080910402602001604051908101604052809291908181526020018280546001816001161561010002031660029004801561069c5780601f106106715761010080835404028352916020019161069c565b820191906000526020600020905b81548152906001019060200180831161067f57829003601f168201915b5050505050908060010154908060020154908060030154905084565b608060405190810160405280606081526020016000815260200160008152602001600081525090565b828054600181600116156101000203166002900490600052602060002090601f016020900481019282601f1061072257805160ff1916838001178555610750565b82800160010185558215610750579182015b8281111561074f578251825591602001919060010190610734565b5b50905061075d9190610761565b5090565b61078391905b8082111561077f576000816000905550600101610767565b5090565b90565b60006107928235610c2b565b905092915050565b60006107a68235610c3d565b905092915050565b600082601f83011215156107c157600080fd5b81356107d46107cf82610b7e565b610b51565b915080825260208301602083018583830111156107f057600080fd5b6107fb838284610c51565b50505092915050565b60006108108235610c47565b905092915050565b6000806040838503121561082b57600080fd5b600061083985828601610786565b925050602061084a85828601610804565b9150509250929050565b60006020828403121561086657600080fd5b60006108748482850161079a565b91505092915050565b6000806000806080858703121561089357600080fd5b600085013567ffffffffffffffff8111156108ad57600080fd5b6108b9878288016107ae565b94505060206108ca8782880161079a565b93505060406108db8782880161079a565b92505060606108ec87828801610804565b91505092959194509250565b60006020828403121561090a57600080fd5b600061091884828501610804565b91505092915050565b61092a81610be5565b82525050565b600061093b82610bb7565b8084526020840193508360208202850161095485610baa565b60005b8481101561098d57838303885261096f838351610a19565b925061097a82610bd8565b9150602088019750600181019050610957565b508196508694505050505092915050565b6109a781610bf7565b82525050565b60006109b882610bcd565b8084526109cc816020860160208601610c60565b6109d581610c93565b602085010191505092915050565b60006109ee82610bc2565b808452610a02816020860160208601610c60565b610a0b81610c93565b602085010191505092915050565b60006080830160008301518482036000860152610a3682826109e3565b9150506020830151610a4b602086018261099e565b506040830151610a5e604086018261099e565b506060830151610a716060860182610a7c565b508091505092915050565b610a8581610c21565b82525050565b6000602082019050610aa06000830184610921565b92915050565b60006020820190508181036000830152610ac08184610930565b905092915050565b6000602082019050610add600083018461099e565b92915050565b60006020820190508181036000830152610afd81846109ad565b905092915050565b60006080820190508181036000830152610b1f81876109e3565b9050610b2e602083018661099e565b610b3b604083018561099e565b610b486060830184610a7c565b95945050505050565b6000604051905081810181811067ffffffffffffffff82111715610b7457600080fd5b8060405250919050565b600067ffffffffffffffff821115610b9557600080fd5b601f19601f8301169050602081019050919050565b6000602082019050919050565b600081519050919050565b600081519050919050565b600081519050919050565b6000602082019050919050565b6000610bf082610c01565b9050919050565b6000819050919050565b600073ffffffffffffffffffffffffffffffffffffffff82169050919050565b6000819050919050565b6000610c3682610c01565b9050919050565b6000819050919050565b6000819050919050565b82818337600083830152505050565b60005b83811015610c7e578082015181840152602081019050610c63565b83811115610c8d576000848401525b50505050565b6000601f19601f830116905091905056fea265627a7a7230582071ef9412b8e0b7a64cb753d8f905880bacd8905ec04b9740cbfea16c3e9a89436c6578706572696d656e74616cf50037",
  "source": "// SPDX-License-Identifier: MIT\r\npragma solidity 0.5.0;\r\npragma experimental ABIEncoderV2;\r\n\r\ncontract Manufacturer{\r\n\r\n    //ethers receive and sent section\r\n    function() external payable{}\r\n\r\n    function getAddress()  public view returns (address){\r\n        return address(this);\r\n    }\r\n\r\n    function fundtransfer(address payable etherreceiver, uint256 amount) public payable {\r\n        etherreceiver.transfer(amount);\r\n    }\r\n\r\n    int public material = 0;\r\n    constructor() public payable{}\r\n\r\n    // General method to call : when manufacturer produces raw material\r\n    function produce() public returns(int){\r\n        // _transaction_entry(\"New Stock added\", material, material + _material, now);\r\n        // material = material + _material;\r\n        material = material + 10 ;\r\n        return material;\r\n    }\r\n\r\n    // General method to call : to consume material\r\n    function sell(int _material) public returns(string memory) {\r\n\r\n        if (material >= _material){\r\n            _transaction_entry(\"Stock spent\", material, material - _material, now);\r\n            material = material - _material;\r\n            return \"Successfully sell / requirement filled\";\r\n        }\r\n        else{\r\n            _transaction_entry(\"Stock spent\", material, 0, now);\r\n            material = 0;\r\n            return \"Successfully sell remaining/ under requirement\" ;\r\n        }\r\n    }\r\n\r\n    // General method to call : to check available stock\r\n    function available() public view returns (int){\r\n        return material;\r\n    }\r\n\r\n    \r\n\r\n\r\n\r\n    // database section\r\n    struct manufacturer_logs {\r\n        string transaction_detail;\r\n        int prev_stock;\r\n        int new_stock;\r\n        uint256 timestamp;\r\n    }\r\n\r\n    manufacturer_logs[] public logs;\r\n\r\n    function _transaction_entry(string memory _transaction_detail ,\r\n                            int _prev_stock,\r\n                            int _new_stock, \r\n                            uint256 _timestamp) public {\r\n\r\n        manufacturer_logs memory newlog;\r\n        newlog.transaction_detail = _transaction_detail;\r\n        newlog.prev_stock = _prev_stock;\r\n        newlog.new_stock = _new_stock;\r\n        newlog.timestamp = _timestamp;\r\n        logs.push(newlog);       \r\n    }\r\n    \r\n    function _transaction_logs() public view returns (manufacturer_logs[] memory) {\r\n        return logs;      \r\n    }\r\n\r\n} \r\n\r\n",
  "sourcePath": "D:\\Mini-Project-Sem-4\\Supply-Chain-and-Logistics-Blockchain\\backend\\blockchain\\contracts\\Manufacturer.sol",
  "compiler": {
    "name": "solc",
    "version": "0.5.0+commit.1d4f565a.Emscripten.clang"
  },
  "schemaVersion": "3.0.1",
  "updatedAt": "2022-04-03T14:59:13.426Z",
  "devdoc": {
    "methods": {}
  },
  "userdoc": {
    "methods": {}
  }
}