{
  "contractName": "Product",
  "abi": [
    {
      "constant": true,
      "inputs": [],
      "name": "index",
      "outputs": [
        {
          "name": "",
          "type": "uint256"
        }
      ],
      "payable": false,
      "stateMutability": "view",
      "type": "function"
    },
    {
      "constant": true,
      "inputs": [
        {
          "name": "",
          "type": "uint256"
        }
      ],
      "name": "stages",
      "outputs": [
        {
          "name": "",
          "type": "string"
        }
      ],
      "payable": false,
      "stateMutability": "view",
      "type": "function"
    },
    {
      "inputs": [
        {
          "name": "_owner",
          "type": "string"
        }
      ],
      "payable": true,
      "stateMutability": "payable",
      "type": "constructor"
    },
    {
      "payable": true,
      "stateMutability": "payable",
      "type": "fallback"
    },
    {
      "constant": true,
      "inputs": [],
      "name": "getAddress",
      "outputs": [
        {
          "name": "",
          "type": "address"
        }
      ],
      "payable": false,
      "stateMutability": "view",
      "type": "function"
    },
    {
      "constant": true,
      "inputs": [],
      "name": "getRetailer",
      "outputs": [
        {
          "name": "",
          "type": "string"
        }
      ],
      "payable": false,
      "stateMutability": "view",
      "type": "function"
    },
    {
      "constant": false,
      "inputs": [],
      "name": "incrementStage",
      "outputs": [],
      "payable": false,
      "stateMutability": "nonpayable",
      "type": "function"
    },
    {
      "constant": true,
      "inputs": [],
      "name": "getProductStage",
      "outputs": [
        {
          "name": "",
          "type": "string"
        }
      ],
      "payable": false,
      "stateMutability": "view",
      "type": "function"
    },
    {
      "constant": false,
      "inputs": [
        {
          "name": "_material",
          "type": "string"
        }
      ],
      "name": "setRequests",
      "outputs": [],
      "payable": false,
      "stateMutability": "nonpayable",
      "type": "function"
    },
    {
      "constant": false,
      "inputs": [
        {
          "name": "_material",
          "type": "string"
        }
      ],
      "name": "acceptRequest",
      "outputs": [],
      "payable": false,
      "stateMutability": "nonpayable",
      "type": "function"
    },
    {
      "constant": false,
      "inputs": [
        {
          "name": "_material",
          "type": "string"
        }
      ],
      "name": "fulfillRequest",
      "outputs": [],
      "payable": false,
      "stateMutability": "nonpayable",
      "type": "function"
    },
    {
      "constant": true,
      "inputs": [],
      "name": "checkallRequests",
      "outputs": [
        {
          "name": "",
          "type": "bool"
        }
      ],
      "payable": false,
      "stateMutability": "view",
      "type": "function"
    }
  ],
  "bytecode": "0x6080604052600060015560e0604051908101604052806040805190810160405280600e81526020017f4964656174696f6e2053746167650000000000000000000000000000000000008152508152602001606060405190810160405280602881526020017f52657175657374656420666f7220526177204d6174657269616c732c20496e2081526020017f50726f67726573730000000000000000000000000000000000000000000000008152508152602001606060405190810160405280602481526020017f416c6c20526177204d6174657269616c732052657175657374732066756c666981526020017f6c6c6564000000000000000000000000000000000000000000000000000000008152508152602001606060405190810160405280602681526020017f416c6c20526177204d6174657269616c7320617265207769746820444973747281526020017f696275746f7200000000000000000000000000000000000000000000000000008152508152602001606060405190810160405280602c81526020017f416c6c20526177204d6174657269616c732070726f63657373696e6720746f2081526020017f6d616b652070726f64756374000000000000000000000000000000000000000081525081526020016040805190810160405280601081526020017f50726f647563742069732052656164790000000000000000000000000000000081525081526020016040805190810160405280601d81526020017f50726f6475637420697320626f7567687420627920637573746f6d657200000081525081525060029060076200025e929190620002ff565b5060006004556040516200102838038062001028833981018060405260208110156200028957600080fd5b810190808051640100000000811115620002a257600080fd5b82810190506020810184811115620002b957600080fd5b8151856001820283011164010000000082111715620002d757600080fd5b50509291905050508060009080519060200190620002f792919062000366565b505062000519565b82805482825590600052602060002090810192821562000353579160200282015b828111156200035257825182908051906020019062000341929190620003ed565b509160200191906001019062000320565b5b50905062000362919062000474565b5090565b828054600181600116156101000203166002900490600052602060002090601f016020900481019282601f10620003a957805160ff1916838001178555620003da565b82800160010185558215620003da579182015b82811115620003d9578251825591602001919060010190620003bc565b5b509050620003e99190620004a5565b5090565b828054600181600116156101000203166002900490600052602060002090601f016020900481019282601f106200043057805160ff191683800117855562000461565b8280016001018555821562000461579182015b828111156200046057825182559160200191906001019062000443565b5b509050620004709190620004a5565b5090565b620004a291905b808211156200049e5760008181620004949190620004cd565b506001016200047b565b5090565b90565b620004ca91905b80821115620004c6576000816000905550600101620004ac565b5090565b90565b50805460018160011615610100020316600290046000825580601f10620004f5575062000516565b601f016020900490600052602060002090810190620005159190620004a5565b5b50565b610aff80620005296000396000f3fe6080604052600436106100a4576000357c0100000000000000000000000000000000000000000000000000000000900463ffffffff168063126f5e7a146100a65780631747facc1461016e5780632986c0e5146101fe57806338cc48311461022957806340078519146102805780634ec05fae14610348578063843b2e7914610377578063845ddcb21461043f578063bed4f43f146104f3578063f80d1ff01461050a575b005b3480156100b257600080fd5b5061016c600480360360208110156100c957600080fd5b81019080803590602001906401000000008111156100e657600080fd5b8201836020820111156100f857600080fd5b8035906020019184600183028401116401000000008311171561011a57600080fd5b91908080601f016020809104026020016040519081016040528093929190818152602001838380828437600081840152601f19601f82011690508083019250505050505050919291929050505061059a565b005b34801561017a57600080fd5b50610183610621565b6040518080602001828103825283818151815260200191508051906020019080838360005b838110156101c35780820151818401526020810190506101a8565b50505050905090810190601f1680156101f05780820380516001836020036101000a031916815260200191505b509250505060405180910390f35b34801561020a57600080fd5b506102136106dc565b6040518082815260200191505060405180910390f35b34801561023557600080fd5b5061023e6106e2565b604051808273ffffffffffffffffffffffffffffffffffffffff1673ffffffffffffffffffffffffffffffffffffffff16815260200191505060405180910390f35b34801561028c57600080fd5b50610346600480360360208110156102a357600080fd5b81019080803590602001906401000000008111156102c057600080fd5b8201836020820111156102d257600080fd5b803590602001918460018302840111640100000000831117156102f457600080fd5b91908080601f016020809104026020016040519081016040528093929190818152602001838380828437600081840152601f19601f8201169050808301925050505050505091929192905050506106ea565b005b34801561035457600080fd5b5061035d610771565b604051808215151515815260200191505060405180910390f35b34801561038357600080fd5b5061043d6004803603602081101561039a57600080fd5b81019080803590602001906401000000008111156103b757600080fd5b8201836020820111156103c957600080fd5b803590602001918460018302840111640100000000831117156103eb57600080fd5b91908080601f016020809104026020016040519081016040528093929190818152602001838380828437600081840152601f19601f820116905080830192505050505050509192919290505050610845565b005b34801561044b57600080fd5b506104786004803603602081101561046257600080fd5b8101908080359060200190929190505050610962565b6040518080602001828103825283818151815260200191508051906020019080838360005b838110156104b857808201518184015260208101905061049d565b50505050905090810190601f1680156104e55780820380516001836020036101000a031916815260200191505b509250505060405180910390f35b3480156104ff57600080fd5b50610508610a1d565b005b34801561051657600080fd5b5061051f610a31565b6040518080602001828103825283818151815260200191508051906020019080838360005b8381101561055f578082015181840152602081019050610544565b50505050905090810190601f16801561058c5780820380516001836020036101000a031916815260200191505b509250505060405180910390f35b60016005826040518082805190602001908083835b6020831015156105d457805182526020820191506020810190506020830392506105af565b6001836020036101000a038019825116818451168082178552505050505050905001915050908152602001604051809103902060006101000a81548160ff02191690831515021790555050565b6060600260015481548110151561063457fe5b906000526020600020018054600181600116156101000203166002900480601f0160208091040260200160405190810160405280929190818152602001828054600181600116156101000203166002900480156106d25780601f106106a7576101008083540402835291602001916106d2565b820191906000526020600020905b8154815290600101906020018083116106b557829003601f168201915b5050505050905090565b60015481565b600030905090565b60016006826040518082805190602001908083835b60208310151561072457805182526020820191506020810190506020830392506106ff565b6001836020036101000a038019825116818451168082178552505050505050905001915050908152602001604051809103902060006101000a81548160ff02191690831515021790555050565b6000806001905060008090505b60045481101561083d5760001515600560038381548110151561079d57fe5b9060005260206000200160405180828054600181600116156101000203166002900480156108025780601f106107e0576101008083540402835291820191610802565b820191906000526020600020905b8154815290600101906020018083116107ee575b5050915050908152602001604051809103902060009054906101000a900460ff161515141561083057600091505b808060010191505061077e565b508091505090565b60006005826040518082805190602001908083835b60208310151561087f578051825260208201915060208101905060208303925061085a565b6001836020036101000a038019825116818451168082178552505050505050905001915050908152602001604051809103902060006101000a81548160ff02191690831515021790555060006006826040518082805190602001908083835b60208310151561090357805182526020820191506020810190506020830392506108de565b6001836020036101000a038019825116818451168082178552505050505050905001915050908152602001604051809103902060006101000a81548160ff02191690831515021790555060046000815480929190600101919050555050565b60028181548110151561097157fe5b906000526020600020016000915090508054600181600116156101000203166002900480601f016020809104026020016040519081016040528092919081815260200182805460018160011615610100020316600290048015610a155780601f106109ea57610100808354040283529160200191610a15565b820191906000526020600020905b8154815290600101906020018083116109f857829003601f168201915b505050505081565b600160008154809291906001019190505550565b606060008054600181600116156101000203166002900480601f016020809104026020016040519081016040528092919081815260200182805460018160011615610100020316600290048015610ac95780601f10610a9e57610100808354040283529160200191610ac9565b820191906000526020600020905b815481529060010190602001808311610aac57829003601f168201915b505050505090509056fea165627a7a72305820d103fba0d657abef339d5a7658cb02cba10b4f8a369b30a90a53588aa001b5e40029",
  "source": "// SPDX-License-Identifier: MIT\r\npragma solidity 0.5.0;\r\n// pragma experimental ABIEncoderV2;\r\n\r\ncontract Product{\r\n\r\n    string Retailer;\r\n\r\n    constructor(string memory _owner) public payable{\r\n       Retailer =  _owner ;\r\n    }\r\n    //ethers receive and sent section\r\n    function() external payable{}\r\n\r\n    function getAddress()  public view returns (address){\r\n        return address(this);\r\n    }\r\n\r\n    function getRetailer() public view returns (string memory){\r\n        return Retailer;\r\n    }\r\n\r\n\r\n    // basic stages in product\r\n    uint public index = 0;\r\n    string[] public stages = [\r\n        \"Ideation Stage\",\r\n        \"Requested for Raw Materials, In Progress\",\r\n        \"All Raw Materials Requests fulfilled\",\r\n        \"All Raw Materials are with DIstributor\",\r\n        \"All Raw Materials processing to make product\",\r\n        \"Product is Ready\",\r\n        \"Product is bought by customer\"\r\n    ];\r\n\r\n    function incrementStage() public {\r\n        index++;\r\n    }\r\n\r\n    function getProductStage() public view returns(string memory){\r\n        return stages[index];\r\n    }\r\n\r\n    \r\n\r\n    // Applications\r\n    \r\n    string[] Materials;\r\n    uint material_SIZE = 0;\r\n\r\n    mapping(string => bool) requestStatus; // is it with retailer or not?\r\n    mapping(string => bool) transportStatus; // is it with distributor or not\r\n\r\n    function setRequests(string memory _material) public {\r\n        requestStatus[_material] = false;\r\n        transportStatus[_material] = false;\r\n        material_SIZE++;\r\n    }\r\n\r\n    function acceptRequest(string memory _material) public {\r\n        transportStatus[_material] = true;\r\n    }\r\n\r\n    function fulfillRequest(string memory _material) public {\r\n         requestStatus[_material] = true;\r\n    }\r\n\r\n    function checkallRequests() public view returns(bool){\r\n        bool flag = true;\r\n        for (uint i = 0; i < material_SIZE; i++)\r\n            if (requestStatus[Materials[i]] == false) // string comparison can also be done here\r\n                flag = false;\r\n\r\n        return flag;\r\n    }\r\n\r\n\r\n\r\n}",
  "sourcePath": "D:\\Mini-Project-Sem-4\\Supply-Chain-and-Logistics-Blockchain\\backend\\blockchain\\contracts\\Product.sol",
  "compiler": {
    "name": "solc",
    "version": "0.5.0+commit.1d4f565a.Emscripten.clang"
  },
  "schemaVersion": "3.0.1",
  "updatedAt": "2022-04-05T22:35:26.750Z",
  "devdoc": {
    "methods": {}
  },
  "userdoc": {
    "methods": {}
  }
}