{
  "contractName": "Product",
  "abi": [
    {
      "constant": true,
      "inputs": [],
      "name": "index",
      "outputs": [
        {
          "name": "",
          "type": "uint256"
        }
      ],
      "payable": false,
      "stateMutability": "view",
      "type": "function"
    },
    {
      "constant": true,
      "inputs": [
        {
          "name": "",
          "type": "uint256"
        }
      ],
      "name": "stages",
      "outputs": [
        {
          "name": "",
          "type": "string"
        }
      ],
      "payable": false,
      "stateMutability": "view",
      "type": "function"
    },
    {
      "inputs": [
        {
          "name": "_owner",
          "type": "string"
        }
      ],
      "payable": true,
      "stateMutability": "payable",
      "type": "constructor"
    },
    {
      "payable": true,
      "stateMutability": "payable",
      "type": "fallback"
    },
    {
      "constant": true,
      "inputs": [],
      "name": "getAddress",
      "outputs": [
        {
          "name": "",
          "type": "address"
        }
      ],
      "payable": false,
      "stateMutability": "view",
      "type": "function"
    },
    {
      "constant": true,
      "inputs": [],
      "name": "getRetailer",
      "outputs": [
        {
          "name": "",
          "type": "string"
        }
      ],
      "payable": false,
      "stateMutability": "view",
      "type": "function"
    },
    {
      "constant": false,
      "inputs": [],
      "name": "incrementStage",
      "outputs": [],
      "payable": false,
      "stateMutability": "nonpayable",
      "type": "function"
    },
    {
      "constant": true,
      "inputs": [],
      "name": "getProductStage",
      "outputs": [
        {
          "name": "",
          "type": "string"
        }
      ],
      "payable": false,
      "stateMutability": "view",
      "type": "function"
    },
    {
      "constant": false,
      "inputs": [
        {
          "name": "_material",
          "type": "string"
        },
        {
          "name": "_capacity",
          "type": "uint256"
        },
        {
          "name": "_price",
          "type": "uint256"
        }
      ],
      "name": "setRequests",
      "outputs": [],
      "payable": false,
      "stateMutability": "nonpayable",
      "type": "function"
    },
    {
      "constant": false,
      "inputs": [
        {
          "name": "_material",
          "type": "string"
        },
        {
          "name": "_manufacturer",
          "type": "string"
        }
      ],
      "name": "acceptRequest",
      "outputs": [],
      "payable": false,
      "stateMutability": "nonpayable",
      "type": "function"
    },
    {
      "constant": false,
      "inputs": [
        {
          "name": "_material",
          "type": "string"
        }
      ],
      "name": "fulfillRequest",
      "outputs": [],
      "payable": false,
      "stateMutability": "nonpayable",
      "type": "function"
    },
    {
      "constant": true,
      "inputs": [],
      "name": "checkallRequests",
      "outputs": [
        {
          "name": "",
          "type": "bool"
        }
      ],
      "payable": false,
      "stateMutability": "view",
      "type": "function"
    }
  ],
  "bytecode": "0x6080604052600060015560e0604051908101604052806040805190810160405280600e81526020017f4964656174696f6e2053746167650000000000000000000000000000000000008152508152602001606060405190810160405280602881526020017f52657175657374656420666f7220526177204d6174657269616c732c20496e2081526020017f50726f67726573730000000000000000000000000000000000000000000000008152508152602001606060405190810160405280602481526020017f416c6c20526177204d6174657269616c732052657175657374732066756c666981526020017f6c6c6564000000000000000000000000000000000000000000000000000000008152508152602001606060405190810160405280602681526020017f416c6c20526177204d6174657269616c7320617265207769746820444973747281526020017f696275746f7200000000000000000000000000000000000000000000000000008152508152602001606060405190810160405280602c81526020017f416c6c20526177204d6174657269616c732070726f63657373696e6720746f2081526020017f6d616b652070726f64756374000000000000000000000000000000000000000081525081526020016040805190810160405280601081526020017f50726f647563742069732052656164790000000000000000000000000000000081525081526020016040805190810160405280601d81526020017f50726f6475637420697320626f7567687420627920637573746f6d657200000081525081525060029060076200025e929190620002ff565b506000600455604051620012e6380380620012e6833981018060405260208110156200028957600080fd5b810190808051640100000000811115620002a257600080fd5b82810190506020810184811115620002b957600080fd5b8151856001820283011164010000000082111715620002d757600080fd5b50509291905050508060009080519060200190620002f792919062000366565b505062000519565b82805482825590600052602060002090810192821562000353579160200282015b828111156200035257825182908051906020019062000341929190620003ed565b509160200191906001019062000320565b5b50905062000362919062000474565b5090565b828054600181600116156101000203166002900490600052602060002090601f016020900481019282601f10620003a957805160ff1916838001178555620003da565b82800160010185558215620003da579182015b82811115620003d9578251825591602001919060010190620003bc565b5b509050620003e99190620004a5565b5090565b828054600181600116156101000203166002900490600052602060002090601f016020900481019282601f106200043057805160ff191683800117855562000461565b8280016001018555821562000461579182015b828111156200046057825182559160200191906001019062000443565b5b509050620004709190620004a5565b5090565b620004a291905b808211156200049e5760008181620004949190620004cd565b506001016200047b565b5090565b90565b620004ca91905b80821115620004c6576000816000905550600101620004ac565b5090565b90565b50805460018160011615610100020316600290046000825580601f10620004f5575062000516565b601f016020900490600052602060002090810190620005159190620004a5565b5b50565b610dbd80620005296000396000f3fe6080604052600436106100a4576000357c0100000000000000000000000000000000000000000000000000000000900463ffffffff168063126f5e7a146100a65780631747facc1461016e5780632986c0e5146101fe57806338cc4831146102295780634ec05fae14610280578063795c006f146102af5780637e73ceee1461040e578063845ddcb2146104ea578063bed4f43f1461059e578063f80d1ff0146105b5575b005b3480156100b257600080fd5b5061016c600480360360208110156100c957600080fd5b81019080803590602001906401000000008111156100e657600080fd5b8201836020820111156100f857600080fd5b8035906020019184600183028401116401000000008311171561011a57600080fd5b91908080601f016020809104026020016040519081016040528093929190818152602001838380828437600081840152601f19601f820116905080830192505050505050509192919290505050610645565b005b34801561017a57600080fd5b506101836106cc565b6040518080602001828103825283818151815260200191508051906020019080838360005b838110156101c35780820151818401526020810190506101a8565b50505050905090810190601f1680156101f05780820380516001836020036101000a031916815260200191505b509250505060405180910390f35b34801561020a57600080fd5b50610213610787565b6040518082815260200191505060405180910390f35b34801561023557600080fd5b5061023e61078d565b604051808273ffffffffffffffffffffffffffffffffffffffff1673ffffffffffffffffffffffffffffffffffffffff16815260200191505060405180910390f35b34801561028c57600080fd5b50610295610795565b604051808215151515815260200191505060405180910390f35b3480156102bb57600080fd5b5061040c600480360360408110156102d257600080fd5b81019080803590602001906401000000008111156102ef57600080fd5b82018360208201111561030157600080fd5b8035906020019184600183028401116401000000008311171561032357600080fd5b91908080601f016020809104026020016040519081016040528093929190818152602001838380828437600081840152601f19601f8201169050808301925050505050505091929192908035906020019064010000000081111561038657600080fd5b82018360208201111561039857600080fd5b803590602001918460018302840111640100000000831117156103ba57600080fd5b91908080601f016020809104026020016040519081016040528093929190818152602001838380828437600081840152601f19601f820116905080830192505050505050509192919290505050610869565b005b34801561041a57600080fd5b506104e86004803603606081101561043157600080fd5b810190808035906020019064010000000081111561044e57600080fd5b82018360208201111561046057600080fd5b8035906020019184600183028401116401000000008311171561048257600080fd5b91908080601f016020809104026020016040519081016040528093929190818152602001838380828437600081840152601f19601f82011690508083019250505050505050919291929080359060200190929190803590602001909291905050506108f0565b005b3480156104f657600080fd5b506105236004803603602081101561050d57600080fd5b8101908080359060200190929190505050610ad9565b6040518080602001828103825283818151815260200191508051906020019080838360005b83811015610563578082015181840152602081019050610548565b50505050905090810190601f1680156105905780820380516001836020036101000a031916815260200191505b509250505060405180910390f35b3480156105aa57600080fd5b506105b3610b94565b005b3480156105c157600080fd5b506105ca610ba8565b6040518080602001828103825283818151815260200191508051906020019080838360005b8381101561060a5780820151818401526020810190506105ef565b50505050905090810190601f1680156106375780820380516001836020036101000a031916815260200191505b509250505060405180910390f35b60016006826040518082805190602001908083835b60208310151561067f578051825260208201915060208101905060208303925061065a565b6001836020036101000a038019825116818451168082178552505050505050905001915050908152602001604051809103902060006101000a81548160ff02191690831515021790555050565b606060026001548154811015156106df57fe5b906000526020600020018054600181600116156101000203166002900480601f01602080910402602001604051908101604052809291908181526020018280546001816001161561010002031660029004801561077d5780601f106107525761010080835404028352916020019161077d565b820191906000526020600020905b81548152906001019060200180831161076057829003601f168201915b5050505050905090565b60015481565b600030905090565b6000806001905060008090505b600454811015610861576000151560066003838154811015156107c157fe5b9060005260206000200160405180828054600181600116156101000203166002900480156108265780601f10610804576101008083540402835291820191610826565b820191906000526020600020905b815481529060010190602001808311610812575b5050915050908152602001604051809103902060009054906101000a900460ff161515141561085457600091505b80806001019150506107a2565b508091505090565b806005836040518082805190602001908083835b6020831015156108a2578051825260208201915060208101905060208303925061087d565b6001836020036101000a038019825116818451168082178552505050505050905001915050908152602001604051809103902060000190805190602001906108eb929190610c4a565b505050565b60006006846040518082805190602001908083835b60208310151561092a5780518252602082019150602081019050602083039250610905565b6001836020036101000a038019825116818451168082178552505050505050905001915050908152602001604051809103902060006101000a81548160ff02191690831515021790555061097c610cca565b8281602001818152505060008054600181600116156101000203166002900480601f016020809104026020016040519081016040528092919081815260200182805460018160011615610100020316600290048015610a1c5780601f106109f157610100808354040283529160200191610a1c565b820191906000526020600020905b8154815290600101906020018083116109ff57829003601f168201915b5050505050816000018190525081816040018181525050806005856040518082805190602001908083835b602083101515610a6c5780518252602082019150602081019050602083039250610a47565b6001836020036101000a03801982511681845116808217855250505050505090500191505090815260200160405180910390206000820151816000019080519060200190610abb929190610cec565b50602082015181600101556040820151816002015590505050505050565b600281815481101515610ae857fe5b906000526020600020016000915090508054600181600116156101000203166002900480601f016020809104026020016040519081016040528092919081815260200182805460018160011615610100020316600290048015610b8c5780601f10610b6157610100808354040283529160200191610b8c565b820191906000526020600020905b815481529060010190602001808311610b6f57829003601f168201915b505050505081565b600160008154809291906001019190505550565b606060008054600181600116156101000203166002900480601f016020809104026020016040519081016040528092919081815260200182805460018160011615610100020316600290048015610c405780601f10610c1557610100808354040283529160200191610c40565b820191906000526020600020905b815481529060010190602001808311610c2357829003601f168201915b5050505050905090565b828054600181600116156101000203166002900490600052602060002090601f016020900481019282601f10610c8b57805160ff1916838001178555610cb9565b82800160010185558215610cb9579182015b82811115610cb8578251825591602001919060010190610c9d565b5b509050610cc69190610d6c565b5090565b6060604051908101604052806060815260200160008152602001600081525090565b828054600181600116156101000203166002900490600052602060002090601f016020900481019282601f10610d2d57805160ff1916838001178555610d5b565b82800160010185558215610d5b579182015b82811115610d5a578251825591602001919060010190610d3f565b5b509050610d689190610d6c565b5090565b610d8e91905b80821115610d8a576000816000905550600101610d72565b5090565b9056fea165627a7a7230582007b8e5c730be70b7fdfb82afdc4181faf87da42cf718215bdafb39cb92cfee660029",
  "source": "// SPDX-License-Identifier: MIT\r\npragma solidity 0.5.0;\r\n// pragma experimental ABIEncoderV2;\r\n\r\ncontract Product{\r\n\r\n    string Retailer;\r\n\r\n    constructor(string memory _owner) public payable{\r\n       Retailer =  _owner ;\r\n    }\r\n    //ethers receive and sent section\r\n    function() external payable{}\r\n\r\n    function getAddress()  public view returns (address){\r\n        return address(this);\r\n    }\r\n\r\n    function getRetailer() public view returns (string memory){\r\n        return Retailer;\r\n    }\r\n\r\n\r\n    // basic stages in product\r\n    uint public index = 0;\r\n    string[] public stages = [\r\n        \"Ideation Stage\",\r\n        \"Requested for Raw Materials, In Progress\",\r\n        \"All Raw Materials Requests fulfilled\",\r\n        \"All Raw Materials are with DIstributor\",\r\n        \"All Raw Materials processing to make product\",\r\n        \"Product is Ready\",\r\n        \"Product is bought by customer\"\r\n    ];\r\n\r\n    function incrementStage() public {\r\n        index++;\r\n    }\r\n\r\n    function getProductStage() public view returns(string memory){\r\n        return stages[index];\r\n    }\r\n\r\n    \r\n\r\n    // Applications\r\n    \r\n    string[] Materials;\r\n    uint material_SIZE = 0;\r\n\r\n    struct Request{\r\n        string currentOwner;\r\n        uint Capacity;\r\n        uint Price;\r\n    }\r\n\r\n    mapping(string => Request) requests;\r\n    mapping(string => bool) requestStatus;\r\n\r\n    function setRequests(string memory _material,  uint _capacity, uint _price) public {\r\n        requestStatus[_material] = false;\r\n        \r\n        Request memory temp;\r\n        temp.Capacity = _capacity;\r\n        temp.currentOwner = Retailer;\r\n        temp.Price = _price;\r\n        requests[_material] = temp;\r\n    }\r\n\r\n    function acceptRequest(string memory _material, string memory _manufacturer) public{\r\n        requests[_material].currentOwner = _manufacturer;\r\n    }\r\n\r\n    function fulfillRequest(string memory _material) public {\r\n         requestStatus[_material] = true;\r\n    }\r\n\r\n    function checkallRequests() public view returns(bool){\r\n        bool flag = true;\r\n        for (uint i = 0; i < material_SIZE; i++)\r\n            if (requestStatus[Materials[i]] == false) // string comparison can also be done here\r\n                flag = false;\r\n\r\n        return flag;\r\n    }\r\n\r\n\r\n\r\n}",
  "sourcePath": "D:\\Mini-Project-Sem-4\\Supply-Chain-and-Logistics-Blockchain\\backend\\blockchain\\contracts\\Product.sol",
  "compiler": {
    "name": "solc",
    "version": "0.5.0+commit.1d4f565a.Emscripten.clang"
  },
  "schemaVersion": "3.0.1",
  "updatedAt": "2022-04-04T18:54:10.081Z",
  "devdoc": {
    "methods": {}
  },
  "userdoc": {
    "methods": {}
  }
}