{
  "contractName": "Retailer",
  "abi": [
    {
      "inputs": [],
      "payable": true,
      "stateMutability": "payable",
      "type": "constructor",
      "signature": "constructor"
    },
    {
      "payable": true,
      "stateMutability": "payable",
      "type": "fallback"
    },
    {
      "constant": true,
      "inputs": [],
      "name": "getAddress",
      "outputs": [
        {
          "name": "",
          "type": "address"
        }
      ],
      "payable": false,
      "stateMutability": "view",
      "type": "function",
      "signature": "0x38cc4831"
    },
    {
      "constant": false,
      "inputs": [
        {
          "name": "_product",
          "type": "string"
        },
        {
          "name": "_material",
          "type": "string"
        },
        {
          "name": "_capacity",
          "type": "int256"
        }
      ],
      "name": "createProduct",
      "outputs": [],
      "payable": false,
      "stateMutability": "nonpayable",
      "type": "function",
      "signature": "0xd5cf6f9e"
    },
    {
      "constant": true,
      "inputs": [
        {
          "name": "_product",
          "type": "string"
        }
      ],
      "name": "getProduct",
      "outputs": [
        {
          "components": [
            {
              "name": "material",
              "type": "string"
            },
            {
              "name": "capacity",
              "type": "int256"
            }
          ],
          "name": "",
          "type": "tuple[]"
        }
      ],
      "payable": false,
      "stateMutability": "view",
      "type": "function",
      "signature": "0x68111cce"
    }
  ],
  "bytecode": "0x60806040526107cb806100136000396000f3fe608060405260043610610057576000357c0100000000000000000000000000000000000000000000000000000000900463ffffffff16806338cc48311461005957806368111cce14610084578063d5cf6f9e146100c1575b005b34801561006557600080fd5b5061006e6100ea565b60405161007b9190610632565b60405180910390f35b34801561009057600080fd5b506100ab60048036036100a69190810190610473565b6100f2565b6040516100b8919061064d565b60405180910390f35b3480156100cd57600080fd5b506100e860048036036100e391908101906104b4565b610268565b005b600030905090565b60606000826040518082805190602001908083835b60208310151561012c5780518252602082019150602081019050602083039250610107565b6001836020036101000a0380198251168184511680821785525050505050509050019150509081526020016040518091039020805480602002602001604051908101604052809291908181526020016000905b8282101561025d5783829060005260206000209060020201604080519081016040529081600082018054600181600116156101000203166002900480601f01602080910402602001604051908101604052809291908181526020018280546001816001161561010002031660029004801561023b5780601f106102105761010080835404028352916020019161023b565b820191906000526020600020905b81548152906001019060200180831161021e57829003601f168201915b505050505081526020016001820154815250508152602001906001019061017f565b505050509050919050565b61027061034a565b828160000181905250818160200181815250506000846040518082805190602001908083835b6020831015156102bb5780518252602082019150602081019050602083039250610296565b6001836020036101000a038019825116818451168082178552505050505050905001915050908152602001604051809103902081908060018154018082558091505090600182039060005260206000209060020201600090919290919091506000820151816000019080519060200190610336929190610364565b506020820151816001015550505050505050565b604080519081016040528060608152602001600081525090565b828054600181600116156101000203166002900490600052602060002090601f016020900481019282601f106103a557805160ff19168380011785556103d3565b828001600101855582156103d3579182015b828111156103d25782518255916020019190600101906103b7565b5b5090506103e091906103e4565b5090565b61040691905b808211156104025760008160009055506001016103ea565b5090565b90565b60006104158235610734565b905092915050565b600082601f830112151561043057600080fd5b813561044361043e8261069c565b61066f565b9150808252602083016020830185838301111561045f57600080fd5b61046a83828461073e565b50505092915050565b60006020828403121561048557600080fd5b600082013567ffffffffffffffff81111561049f57600080fd5b6104ab8482850161041d565b91505092915050565b6000806000606084860312156104c957600080fd5b600084013567ffffffffffffffff8111156104e357600080fd5b6104ef8682870161041d565b935050602084013567ffffffffffffffff81111561050c57600080fd5b6105188682870161041d565b925050604061052986828701610409565b9150509250925092565b61053c816106f8565b82525050565b600061054d826106d5565b80845260208401935083602082028501610566856106c8565b60005b8481101561059f5783830388526105818383516105f5565b925061058c826106eb565b9150602088019750600181019050610569565b508196508694505050505092915050565b6105b98161070a565b82525050565b60006105ca826106e0565b8084526105de81602086016020860161074d565b6105e781610780565b602085010191505092915050565b6000604083016000830151848203600086015261061282826105bf565b915050602083015161062760208601826105b0565b508091505092915050565b60006020820190506106476000830184610533565b92915050565b600060208201905081810360008301526106678184610542565b905092915050565b6000604051905081810181811067ffffffffffffffff8211171561069257600080fd5b8060405250919050565b600067ffffffffffffffff8211156106b357600080fd5b601f19601f8301169050602081019050919050565b6000602082019050919050565b600081519050919050565b600081519050919050565b6000602082019050919050565b600061070382610714565b9050919050565b6000819050919050565b600073ffffffffffffffffffffffffffffffffffffffff82169050919050565b6000819050919050565b82818337600083830152505050565b60005b8381101561076b578082015181840152602081019050610750565b8381111561077a576000848401525b50505050565b6000601f19601f830116905091905056fea265627a7a72305820ac1988e2c04a39140248a49c0ae7e747ffbd037ab8cb4d1f9bc07232430f87e76c6578706572696d656e74616cf50037",
  "source": "// SPDX-License-Identifier: MIT\r\npragma solidity 0.5.0;\r\npragma experimental ABIEncoderV2;\r\n\r\ncontract Retailer{\r\n    \r\n    constructor() public payable{}\r\n    //ethers receive and sent section\r\n    function() external payable{}\r\n\r\n    function getAddress()  public view returns (address){\r\n        return address(this);\r\n    }\r\n\r\n\r\n    // Product Creation and Retrieval\r\n    \r\n    struct Material{\r\n        string material;\r\n        int capacity;\r\n    }\r\n    mapping(string => Material[]) product;\r\n\r\n    function createProduct(string memory _product, string memory _material, int _capacity) public{\r\n        Material memory m;\r\n        m.material = _material;\r\n        m.capacity = _capacity;\r\n        product[_product].push(m);\r\n    }\r\n\r\n    function getProduct(string memory _product) public view returns(Material[] memory){\r\n        return product[_product];\r\n    }\r\n\r\n\r\n\r\n}",
  "sourcePath": "D:\\Mini-Project-Sem-4\\Supply-Chain-and-Logistics-Blockchain\\backend\\blockchain\\contracts\\Retailer.sol",
  "compiler": {
    "name": "solc",
    "version": "0.5.0+commit.1d4f565a.Emscripten.clang"
  },
  "schemaVersion": "3.0.1",
  "updatedAt": "2022-04-04T11:41:52.110Z",
  "devdoc": {
    "methods": {}
  },
  "userdoc": {
    "methods": {}
  }
}