{
  "contractName": "test",
  "abi": [
    {
      "constant": true,
      "inputs": [],
      "name": "a",
      "outputs": [
        {
          "name": "",
          "type": "uint256"
        }
      ],
      "payable": false,
      "stateMutability": "view",
      "type": "function",
      "signature": "0x0dbe671f"
    },
    {
      "constant": true,
      "inputs": [],
      "name": "get",
      "outputs": [
        {
          "name": "",
          "type": "uint256"
        }
      ],
      "payable": false,
      "stateMutability": "view",
      "type": "function",
      "signature": "0x6d4ce63c"
    }
  ],
  "bytecode": "0x6080604052600a60005534801561001557600080fd5b5060d9806100246000396000f3fe6080604052600436106049576000357c0100000000000000000000000000000000000000000000000000000000900463ffffffff1680630dbe671f14604e5780636d4ce63c146076575b600080fd5b348015605957600080fd5b506060609e565b6040518082815260200191505060405180910390f35b348015608157600080fd5b50608860a4565b6040518082815260200191505060405180910390f35b60005481565b6000805490509056fea165627a7a72305820c363a5cb4595ebb8ced136823dc3d40bb57058b6a64c6bc9e095dc51f4e4a1af0029",
  "source": "// SPDX-License-Identifier: MIT\r\npragma solidity 0.5.0;\r\n\r\ncontract test{\r\n    uint public a = 10;\r\n    function get() public view returns(uint ){\r\n        return a;\r\n    }\r\n}",
  "sourcePath": "D:/Mini-Project-Sem-4/Supply-Chain-and-Logistics-Blockchain/backend/blockchain/contracts/Test.sol",
  "compiler": {
    "name": "solc",
    "version": "0.5.0+commit.1d4f565a.Emscripten.clang"
  },
  "schemaVersion": "3.0.1",
  "updatedAt": "2022-03-30T17:26:37.898Z",
  "devdoc": {
    "methods": {}
  },
  "userdoc": {
    "methods": {}
  }
}