{
  "contractName": "test",
  "abi": [
    {
      "constant": true,
      "inputs": [],
      "name": "a",
      "outputs": [
        {
          "name": "",
          "type": "uint256"
        }
      ],
      "payable": false,
      "stateMutability": "view",
      "type": "function",
      "signature": "0x0dbe671f"
    },
    {
      "constant": true,
      "inputs": [],
      "name": "get",
      "outputs": [
        {
          "name": "",
          "type": "string"
        }
      ],
      "payable": false,
      "stateMutability": "pure",
      "type": "function",
      "signature": "0x6d4ce63c"
    },
    {
      "constant": false,
      "inputs": [],
      "name": "set",
      "outputs": [],
      "payable": false,
      "stateMutability": "nonpayable",
      "type": "function",
      "signature": "0xb8e010de"
    }
  ],
  "bytecode": "0x60806040526000805534801561001457600080fd5b506101b0806100246000396000f3fe608060405260043610610057576000357c0100000000000000000000000000000000000000000000000000000000900463ffffffff1680630dbe671f1461005c5780636d4ce63c14610087578063b8e010de14610117575b600080fd5b34801561006857600080fd5b5061007161012e565b6040518082815260200191505060405180910390f35b34801561009357600080fd5b5061009c610134565b6040518080602001828103825283818151815260200191508051906020019080838360005b838110156100dc5780820151818401526020810190506100c1565b50505050905090810190601f1680156101095780820380516001836020036101000a031916815260200191505b509250505060405180910390f35b34801561012357600080fd5b5061012c610171565b005b60005481565b60606040805190810160405280601f81526020017f426c6f636b636861696e20436f6e6e656374696f6e2073756363657366756c00815250905090565b600080815480929190600101919050555056fea165627a7a72305820150ec1b592ed929e39dff874edb01db00dcc37bdce34ca10c686328b6ffff0920029",
  "source": "// SPDX-License-Identifier: MIT\r\npragma solidity 0.5.0;\r\n\r\ncontract test{\r\n    uint public a = 0;\r\n    function get() public pure returns(string memory ){\r\n        return \"Blockchain Connection succesful\";\r\n    }\r\n    function set() public{\r\n        a++;\r\n    }\r\n}",
  "sourcePath": "D:/Mini-Project-Sem-4/Supply-Chain-and-Logistics-Blockchain/backend/blockchain/contracts/Test.sol",
  "compiler": {
    "name": "solc",
    "version": "0.5.0+commit.1d4f565a.Emscripten.clang"
  },
  "schemaVersion": "3.0.1",
  "updatedAt": "2022-03-30T20:43:31.464Z",
  "devdoc": {
    "methods": {}
  },
  "userdoc": {
    "methods": {}
  }
}