{
  "contractName": "Transport",
  "abi": [
    {
      "inputs": [
        {
          "name": "_owner",
          "type": "string"
        }
      ],
      "payable": true,
      "stateMutability": "payable",
      "type": "constructor"
    },
    {
      "payable": true,
      "stateMutability": "payable",
      "type": "fallback"
    },
    {
      "constant": true,
      "inputs": [],
      "name": "getAddress",
      "outputs": [
        {
          "name": "",
          "type": "address"
        }
      ],
      "payable": false,
      "stateMutability": "view",
      "type": "function"
    },
    {
      "constant": true,
      "inputs": [],
      "name": "getDistributor",
      "outputs": [
        {
          "name": "",
          "type": "string"
        }
      ],
      "payable": false,
      "stateMutability": "view",
      "type": "function"
    },
    {
      "constant": false,
      "inputs": [
        {
          "name": "_material",
          "type": "string"
        }
      ],
      "name": "setRequests",
      "outputs": [],
      "payable": false,
      "stateMutability": "nonpayable",
      "type": "function"
    },
    {
      "constant": false,
      "inputs": [
        {
          "name": "_material",
          "type": "string"
        }
      ],
      "name": "acceptRequest",
      "outputs": [],
      "payable": false,
      "stateMutability": "nonpayable",
      "type": "function"
    },
    {
      "constant": false,
      "inputs": [
        {
          "name": "_material",
          "type": "string"
        }
      ],
      "name": "fulfillRequest",
      "outputs": [],
      "payable": false,
      "stateMutability": "nonpayable",
      "type": "function"
    }
  ],
  "bytecode": "0x608060405260006003556040516107fd3803806107fd8339810180604052602081101561002b57600080fd5b81019080805164010000000081111561004357600080fd5b8281019050602081018481111561005957600080fd5b815185600182028301116401000000008211171561007657600080fd5b5050929190505050806000908051906020019061009492919061009b565b5050610140565b828054600181600116156101000203166002900490600052602060002090601f016020900481019282601f106100dc57805160ff191683800117855561010a565b8280016001018555821561010a579182015b828111156101095782518255916020019190600101906100ee565b5b509050610117919061011b565b5090565b61013d91905b80821115610139576000816000905550600101610121565b5090565b90565b6106ae8061014f6000396000f3fe60806040526004361061006d576000357c0100000000000000000000000000000000000000000000000000000000900463ffffffff168063126f5e7a1461006f57806338cc483114610137578063400785191461018e5780635884965f14610256578063843b2e79146102e6575b005b34801561007b57600080fd5b506101356004803603602081101561009257600080fd5b81019080803590602001906401000000008111156100af57600080fd5b8201836020820111156100c157600080fd5b803590602001918460018302840111640100000000831117156100e357600080fd5b91908080601f016020809104026020016040519081016040528093929190818152602001838380828437600081840152601f19601f8201169050808301925050505050505091929192905050506103ae565b005b34801561014357600080fd5b5061014c610435565b604051808273ffffffffffffffffffffffffffffffffffffffff1673ffffffffffffffffffffffffffffffffffffffff16815260200191505060405180910390f35b34801561019a57600080fd5b50610254600480360360208110156101b157600080fd5b81019080803590602001906401000000008111156101ce57600080fd5b8201836020820111156101e057600080fd5b8035906020019184600183028401116401000000008311171561020257600080fd5b91908080601f016020809104026020016040519081016040528093929190818152602001838380828437600081840152601f19601f82011690508083019250505050505050919291929050505061043d565b005b34801561026257600080fd5b5061026b6104c3565b6040518080602001828103825283818151815260200191508051906020019080838360005b838110156102ab578082015181840152602081019050610290565b50505050905090810190601f1680156102d85780820380516001836020036101000a031916815260200191505b509250505060405180910390f35b3480156102f257600080fd5b506103ac6004803603602081101561030957600080fd5b810190808035906020019064010000000081111561032657600080fd5b82018360208201111561033857600080fd5b8035906020019184600183028401116401000000008311171561035a57600080fd5b91908080601f016020809104026020016040519081016040528093929190818152602001838380828437600081840152601f19601f820116905080830192505050505050509192919290505050610565565b005b60016002826040518082805190602001908083835b6020831015156103e857805182526020820191506020810190506020830392506103c3565b6001836020036101000a038019825116818451168082178552505050505050905001915050908152602001604051809103902060006101000a81548160ff02191690831515021790555050565b600030905090565b600180826040518082805190602001908083835b6020831015156104765780518252602082019150602081019050602083039250610451565b6001836020036101000a038019825116818451168082178552505050505050905001915050908152602001604051809103902060006101000a81548160ff02191690831515021790555050565b606060008054600181600116156101000203166002900480601f01602080910402602001604051908101604052809291908181526020018280546001816001161561010002031660029004801561055b5780601f106105305761010080835404028352916020019161055b565b820191906000526020600020905b81548152906001019060200180831161053e57829003601f168201915b5050505050905090565b60006001826040518082805190602001908083835b60208310151561059f578051825260208201915060208101905060208303925061057a565b6001836020036101000a038019825116818451168082178552505050505050905001915050908152602001604051809103902060006101000a81548160ff02191690831515021790555060006002826040518082805190602001908083835b60208310151561062357805182526020820191506020810190506020830392506105fe565b6001836020036101000a038019825116818451168082178552505050505050905001915050908152602001604051809103902060006101000a81548160ff0219169083151502179055506003600081548092919060010191905055505056fea165627a7a723058203bc9effad099865746348639af25917ad48344f48edaea4b56b74f769acba3290029",
  "source": "// SPDX-License-Identifier: MIT\r\npragma solidity 0.5.0;\r\n// pragma experimental ABIEncoderV2;\r\n\r\ncontract Transport{\r\n\r\n    string Distributor;\r\n\r\n    constructor(string memory _owner) public payable{\r\n       Distributor =  _owner ;\r\n    }\r\n    //ethers receive and sent section\r\n    function() external payable{}\r\n\r\n    function getAddress()  public view returns (address){\r\n        return address(this);\r\n    }\r\n\r\n    function getDistributor() public view returns (string memory){\r\n        return Distributor;\r\n    }\r\n\r\n\r\n    // applications\r\n    mapping(string => bool) importStatus; // is it with distributor or not\r\n    mapping(string => bool) exportStatus; // is it with distributor or not\r\n    uint material_SIZE = 0;\r\n\r\n    function setRequests(string memory _material) public {\r\n        importStatus[_material] = false;\r\n        exportStatus[_material] = false;\r\n        material_SIZE++;\r\n    }\r\n\r\n    function acceptRequest(string memory _material) public {\r\n        importStatus[_material] = true;\r\n    }\r\n\r\n    function fulfillRequest(string memory _material) public {\r\n         exportStatus[_material] = true;\r\n    }\r\n\r\n}",
  "sourcePath": "D:\\Mini-Project-Sem-4\\Supply-Chain-and-Logistics-Blockchain\\backend\\blockchain\\contracts\\Transport.sol",
  "compiler": {
    "name": "solc",
    "version": "0.5.0+commit.1d4f565a.Emscripten.clang"
  },
  "schemaVersion": "3.0.1",
  "updatedAt": "2022-04-05T07:04:50.886Z",
  "devdoc": {
    "methods": {}
  },
  "userdoc": {
    "methods": {}
  }
}