{
  "contractName": "Transport",
  "abi": [
    {
      "inputs": [
        {
          "name": "_owner",
          "type": "string"
        }
      ],
      "payable": true,
      "stateMutability": "payable",
      "type": "constructor"
    },
    {
      "payable": true,
      "stateMutability": "payable",
      "type": "fallback"
    },
    {
      "constant": true,
      "inputs": [],
      "name": "getAddress",
      "outputs": [
        {
          "name": "",
          "type": "address"
        }
      ],
      "payable": false,
      "stateMutability": "view",
      "type": "function"
    },
    {
      "constant": true,
      "inputs": [],
      "name": "getDistributor",
      "outputs": [
        {
          "name": "",
          "type": "string"
        }
      ],
      "payable": false,
      "stateMutability": "view",
      "type": "function"
    },
    {
      "constant": false,
      "inputs": [
        {
          "name": "_material",
          "type": "string"
        },
        {
          "name": "_capacity",
          "type": "uint256"
        },
        {
          "name": "_price",
          "type": "uint256"
        }
      ],
      "name": "setRequests",
      "outputs": [],
      "payable": false,
      "stateMutability": "nonpayable",
      "type": "function"
    },
    {
      "constant": false,
      "inputs": [
        {
          "name": "_material",
          "type": "string"
        },
        {
          "name": "_manufacturer",
          "type": "string"
        }
      ],
      "name": "acceptRequest",
      "outputs": [],
      "payable": false,
      "stateMutability": "nonpayable",
      "type": "function"
    },
    {
      "constant": false,
      "inputs": [
        {
          "name": "_material",
          "type": "string"
        }
      ],
      "name": "fulfillRequest",
      "outputs": [],
      "payable": false,
      "stateMutability": "nonpayable",
      "type": "function"
    },
    {
      "constant": true,
      "inputs": [],
      "name": "checkallRequests",
      "outputs": [
        {
          "name": "",
          "type": "bool"
        }
      ],
      "payable": false,
      "stateMutability": "view",
      "type": "function"
    }
  ],
  "bytecode": "0x60806040526000600255604051610bca380380610bca8339810180604052602081101561002b57600080fd5b81019080805164010000000081111561004357600080fd5b8281019050602081018481111561005957600080fd5b815185600182028301116401000000008211171561007657600080fd5b5050929190505050806000908051906020019061009492919061009b565b5050610140565b828054600181600116156101000203166002900490600052602060002090601f016020900481019282601f106100dc57805160ff191683800117855561010a565b8280016001018555821561010a579182015b828111156101095782518255916020019190600101906100ee565b5b509050610117919061011b565b5090565b61013d91905b80821115610139576000816000905550600101610121565b5090565b90565b610a7b8061014f6000396000f3fe608060405260043610610078576000357c0100000000000000000000000000000000000000000000000000000000900463ffffffff168063126f5e7a1461007a57806338cc4831146101425780634ec05fae146101995780635884965f146101c8578063795c006f146102585780637e73ceee146103b7575b005b34801561008657600080fd5b506101406004803603602081101561009d57600080fd5b81019080803590602001906401000000008111156100ba57600080fd5b8201836020820111156100cc57600080fd5b803590602001918460018302840111640100000000831117156100ee57600080fd5b91908080601f016020809104026020016040519081016040528093929190818152602001838380828437600081840152601f19601f820116905080830192505050505050509192919290505050610493565b005b34801561014e57600080fd5b5061015761051a565b604051808273ffffffffffffffffffffffffffffffffffffffff1673ffffffffffffffffffffffffffffffffffffffff16815260200191505060405180910390f35b3480156101a557600080fd5b506101ae610522565b604051808215151515815260200191505060405180910390f35b3480156101d457600080fd5b506101dd6105f6565b6040518080602001828103825283818151815260200191508051906020019080838360005b8381101561021d578082015181840152602081019050610202565b50505050905090810190601f16801561024a5780820380516001836020036101000a031916815260200191505b509250505060405180910390f35b34801561026457600080fd5b506103b56004803603604081101561027b57600080fd5b810190808035906020019064010000000081111561029857600080fd5b8201836020820111156102aa57600080fd5b803590602001918460018302840111640100000000831117156102cc57600080fd5b91908080601f016020809104026020016040519081016040528093929190818152602001838380828437600081840152601f19601f8201169050808301925050505050505091929192908035906020019064010000000081111561032f57600080fd5b82018360208201111561034157600080fd5b8035906020019184600183028401116401000000008311171561036357600080fd5b91908080601f016020809104026020016040519081016040528093929190818152602001838380828437600081840152601f19601f820116905080830192505050505050509192919290505050610698565b005b3480156103c357600080fd5b50610491600480360360608110156103da57600080fd5b81019080803590602001906401000000008111156103f757600080fd5b82018360208201111561040957600080fd5b8035906020019184600183028401116401000000008311171561042b57600080fd5b91908080601f016020809104026020016040519081016040528093929190818152602001838380828437600081840152601f19601f820116905080830192505050505050509192919290803590602001909291908035906020019092919050505061071f565b005b60016004826040518082805190602001908083835b6020831015156104cd57805182526020820191506020810190506020830392506104a8565b6001836020036101000a038019825116818451168082178552505050505050905001915050908152602001604051809103902060006101000a81548160ff02191690831515021790555050565b600030905090565b6000806001905060008090505b6002548110156105ee5760001515600460018381548110151561054e57fe5b9060005260206000200160405180828054600181600116156101000203166002900480156105b35780601f106105915761010080835404028352918201916105b3565b820191906000526020600020905b81548152906001019060200180831161059f575b5050915050908152602001604051809103902060009054906101000a900460ff16151514156105e157600091505b808060010191505061052f565b508091505090565b606060008054600181600116156101000203166002900480601f01602080910402602001604051908101604052809291908181526020018280546001816001161561010002031660029004801561068e5780601f106106635761010080835404028352916020019161068e565b820191906000526020600020905b81548152906001019060200180831161067157829003601f168201915b5050505050905090565b806003836040518082805190602001908083835b6020831015156106d157805182526020820191506020810190506020830392506106ac565b6001836020036101000a0380198251168184511680821785525050505050509050019150509081526020016040518091039020600001908051906020019061071a929190610908565b505050565b60006004846040518082805190602001908083835b6020831015156107595780518252602082019150602081019050602083039250610734565b6001836020036101000a038019825116818451168082178552505050505050905001915050908152602001604051809103902060006101000a81548160ff0219169083151502179055506107ab610988565b8281602001818152505060008054600181600116156101000203166002900480601f01602080910402602001604051908101604052809291908181526020018280546001816001161561010002031660029004801561084b5780601f106108205761010080835404028352916020019161084b565b820191906000526020600020905b81548152906001019060200180831161082e57829003601f168201915b5050505050816000018190525081816040018181525050806003856040518082805190602001908083835b60208310151561089b5780518252602082019150602081019050602083039250610876565b6001836020036101000a038019825116818451168082178552505050505050905001915050908152602001604051809103902060008201518160000190805190602001906108ea9291906109aa565b50602082015181600101556040820151816002015590505050505050565b828054600181600116156101000203166002900490600052602060002090601f016020900481019282601f1061094957805160ff1916838001178555610977565b82800160010185558215610977579182015b8281111561097657825182559160200191906001019061095b565b5b5090506109849190610a2a565b5090565b6060604051908101604052806060815260200160008152602001600081525090565b828054600181600116156101000203166002900490600052602060002090601f016020900481019282601f106109eb57805160ff1916838001178555610a19565b82800160010185558215610a19579182015b82811115610a185782518255916020019190600101906109fd565b5b509050610a269190610a2a565b5090565b610a4c91905b80821115610a48576000816000905550600101610a30565b5090565b9056fea165627a7a72305820d3d80b799c212912ec5b4e0f397e2723d0a7479c3f62fc3b36960e8c52a5928d0029",
  "source": "// SPDX-License-Identifier: MIT\r\npragma solidity 0.5.0;\r\n// pragma experimental ABIEncoderV2;\r\n\r\ncontract Transport{\r\n\r\n    string Distributor;\r\n\r\n    constructor(string memory _owner) public payable{\r\n       Distributor =  _owner ;\r\n    }\r\n    //ethers receive and sent section\r\n    function() external payable{}\r\n\r\n    function getAddress()  public view returns (address){\r\n        return address(this);\r\n    }\r\n\r\n    function getDistributor() public view returns (string memory){\r\n        return Distributor;\r\n    }\r\n\r\n\r\n    // applications\r\n    string[] Materials;\r\n    uint material_SIZE = 0;\r\n\r\n    struct Request{\r\n        string currentOwner;\r\n        uint Capacity;\r\n        uint Price;\r\n    }\r\n    mapping(string => Request) requests;\r\n    mapping(string => bool) requestStatus;\r\n\r\n    function setRequests(string memory _material,  uint _capacity, uint _price) public {\r\n        requestStatus[_material] = false;\r\n        \r\n        Request memory temp;\r\n        temp.Capacity = _capacity;\r\n        temp.currentOwner = Distributor;\r\n        temp.Price = _price;\r\n        requests[_material] = temp;\r\n    }\r\n\r\n    function acceptRequest(string memory _material, string memory _manufacturer) public{\r\n        requests[_material].currentOwner = _manufacturer;\r\n    }\r\n\r\n    function fulfillRequest(string memory _material) public {\r\n         requestStatus[_material] = true;\r\n    }\r\n\r\n    function checkallRequests() public view returns(bool){\r\n        bool flag = true;\r\n        for (uint i = 0; i < material_SIZE; i++)\r\n            if (requestStatus[Materials[i]] == false) // string comparison can also be done here\r\n                flag = false;\r\n\r\n        return flag;\r\n    }\r\n}",
  "sourcePath": "D:\\Mini-Project-Sem-4\\Supply-Chain-and-Logistics-Blockchain\\backend\\blockchain\\contracts\\Transport.sol",
  "compiler": {
    "name": "solc",
    "version": "0.5.0+commit.1d4f565a.Emscripten.clang"
  },
  "schemaVersion": "3.0.1",
  "updatedAt": "2022-04-04T18:54:10.078Z",
  "devdoc": {
    "methods": {}
  },
  "userdoc": {
    "methods": {}
  }
}